:100000000C94B5000C940A010C9486010C94D20057
:100010000C94D2000C94D2000C94D2000C94D20018
:100020000C94D2000C94D2000C94D2000C94D20008
:100030000C94D2000C94D2000C94D2000C94D200F8
:100040000C94D2000C94D2000C9480020C94AB025D
:100050000C94D2000C94D2000C94D2000C94D200D8
:100060000C94D2000C94D2006E616E00696E660032
:1000700000407A10F35A00A0724E18090010A5D45F
:10008000E80000E87648170000E40B54020000CABC
:100090009A3B000000E1F505000080969800000002
:1000A00040420F000000A086010000001027000061
:1000B0000000E803000000006400000000000A00E7
:1000C000000000000100000000002C76D888DC67EA
:1000D0004F0823DFC1DFAE59E1B1B796E5E3E45342
:1000E000C63AE651997696E8E6C28426EB898C9B5F
:1000F00062ED407C6FFCEFBC9C9F40F2BAA56FA5FF
:10010000F490055A2AF75C936B6CF9676DC11BFC80
:10011000E0E40D47FEF520E6B500D0ED902E03009B
:10012000943577050080841E080000204E0A0000E8
:1001300000C80C333333330F986E12831141EF8DA7
:100140002114893BE65516CFFEE6DB18D1844B38E7
:100150001BF77C1D901DA4BBE424203284725E2218
:100160008100C9F124ECA1E53D2711241FBECFEF8A
:10017000D8E0DEBFCDBF11E0A0E0B1E0E8EAF0E1F9
:1001800002C005900D92AE33B107D9F721E0AEE37E
:10019000B1E001C01D92A13AB207E1F70E94360218
:1001A0000C9452080C940000EF92FF920F931F934F
:1001B000CF93DF9310923E0148E050E020E830E01A
:1001C0000F2EFEE0EF2EF1E0FF2EF02D00E111E00A
:1001D000CEE3D1E0B901682379236217730711F0E8
:1001E000D80101C0D701FE0101900020E9F7319745
:1001F0006D917C91718360833595279541505109AC
:1002000049F78EE391E0DF91CF911F910F91FF901D
:10021000EF9008951F920F920FB60F9211248F93B3
:100220009F93AF93BF9389B18C7080939A0185E0BF
:100230008A95F1F7000089B190919A018C70891329
:100240005CC080919A0182FF2CC080919A0183FF4B
:1002500014C08091490190914A01A0914B01B09145
:100260004C010197A109B1098093490190934A017A
:10027000A0934B01B0934C013FC0809149019091F4
:100280004A01A0914B01B0914C010196A11DB11DF5
:100290008093490190934A01A0934B01B0934C0184
:1002A0002BC080919A0183FF14C0809149019091E5
:1002B0004A01A0914B01B0914C010196A11DB11DC5
:1002C0008093490190934A01A0934B01B0934C0154
:1002D00013C08091490190914A01A0914B01B091C6
:1002E0004C010197A109B1098093490190934A01FA
:1002F000A0934B01B0934C017894BF91AF919F9123
:100300008F910F900FBE0F901F9018951F920F9214
:100310000FB60F9211248F939F93AF93BF9389B120
:100320008C7080939A0185E08A95F1F7000089B17D
:1003300090919A018C7089135CC080919A0182FF20
:100340002CC080919A0183FF14C080914901909143
:100350004A01A0914B01B0914C010196A11DB11D24
:100360008093490190934A01A0934B01B0934C01B3
:100370003FC08091490190914A01A0914B01B091F9
:100380004C010197A109B1098093490190934A0159
:10039000A0934B01B0934C012BC080919A0183FF35
:1003A00014C08091490190914A01A0914B01B091F4
:1003B0004C010197A109B1098093490190934A0129
:1003C000A0934B01B0934C0113C0809149019091CF
:1003D0004A01A0914B01B0914C010196A11DB11DA4
:1003E0008093490190934A01A0934B01B0934C0133
:1003F0007894BF91AF919F918F910F900FBE0F9006
:100400001F9018951092C50082E28093C400E0EC22
:10041000F0E080818260808388E98093C10086E07B
:100420008093C2000895E0ECF0E0908195FFFDCF4D
:100430008093C60008950E94130280E090E0089522
:10044000E0914801F0E0EE56FE4F80819091480126
:100450009F5F977090934801089520914801909173
:10046000470181E0291301C080E00895E9E6F0E04A
:100470008081856080838DB383608DBB1AB81AB884
:1004800081E08093810081E090E0909385008093EB
:1004900084000E94020280E091E090939E0180938C
:1004A0009D01789482E191E00E94C407CBE1D1E004
:1004B0000E942D02882381F00E94200290E00E9479
:1004C000D4009F938F93DF93CF930E94AE070F903A
:1004D0000F900F900F9004C08AE291E00E94C40731
:1004E0008FE09EE00197F1F700C000009FEF24E34A
:1004F0008CE0915020408040E1F700C00000D8CF50
:100500001F920F920FB60F9211242F938F939F93E8
:10051000EF93FF938091C0002091C6008871E09115
:100520004F01EF5FEF7190914E01E91739F0E093C1
:100530004F01F0E0EE5AFE4F208301C082E080932D
:100540004D01FF91EF919F918F912F910F900FBED1
:100550000F901F9018951F920F920FB60F921124B3
:100560008F939F93EF93FF9390915101809150014E
:10057000981769F0E0915001EF5FEF71E09350013F
:10058000F0E0EE58FE4F80818093C60005C0E1EC9C
:10059000F0E080818F7D8083FF91EF919F918F911B
:1005A0000F900FBE0F901F901895A3E1B0E0EBEDF8
:1005B000F2E00C9451066C014B012A01FC011782F8
:1005C0001682838181FF43C3AE014F5F5F4F3A01C3
:1005D000F6019381F40193FD859193FF81914F0181
:1005E000882309F430C3853239F493FD859193FF54
:1005F00081914F01853239F4B60190E00E9476076F
:1006000052012501E5CF10E0F12C20E02032A0F4CA
:100610008B3269F030F4803259F0833269F4206112
:100620002CC08D3239F0803339F4216026C022602D
:10063000246023C0286021C027FD27C030ED380F7B
:100640003A3078F426FF06C0FAE01F9F300D1124DF
:10065000132F13C04AE0F49E300D1124F32E2062B4
:100660000CC08E3221F426FDEEC2206406C08C360A
:1006700011F4206802C0883641F4F40193FD85919D
:1006800093FF81914F018111C1CF9BEB980F933064
:1006900018F42061805E06C09BE9980F933008F043
:1006A00071C12F7E26FF16E02F73322E853619F486
:1006B0002064322E08C0863621F4F22FF0683F2ED7
:1006C00002C01111115037FE07C01C3350F4EE2444
:1006D000E394E10E27E00BC0183038F027E017E074
:1006E00005C027E04CE3E42E02C0212FE12C52018B
:1006F00044E0A40EB11CF20160817181828193817A
:100700000E2DA3010E9488062C01098100FF02C062
:1007100003FF07C031FC08C032FE09C030E2232EBF
:1007200007C02DE2222E04C09BE2292E01C0212CFD
:10073000802F8C7019F0211068C2A8C237FE0FC03C
:10074000E40C04FF04C08A81813309F4EA941E1486
:1007500074F5F8E0FE1578F588E0E82E2CC036FC3C
:100760002AC0812F90E0841595059CF02CEF42164D
:100770002FEF520674F0432D4068342E0AC0E2E099
:10078000F0E0EC0FFD1FE10FF11D8081803319F4C3
:1007900011501111F4CF37FE0EC0EE24E394E10E98
:1007A000812F90E0481659062CF4141904C0EE2449
:1007B000E39401C010E037FE06C01414150434F4AD
:1007C000C201019605C085E090E002C081E090E0A2
:1007D00021100196112331F0212F30E02F5F3F4F80
:1007E000820F931F2F2D30E08217930714F4F81A0D
:1007F00001C0F12C832D897049F4FF2039F0B60136
:1008000080E290E00E947607FA94F7CF222029F048
:10081000B601822D90E00E94760733FC09C0FF20CC
:1008200039F0B60180E390E00E947607FA94F7CFA2
:1008300037FE5AC0942D852D57FE02C090E080E00F
:10084000292E382E20E030E0A2014E1951095D8793
:100850004C87A201421953095F874E87612F70E0D0
:1008600044275527461B570B598B488B5FEF25169E
:10087000350649F4B6018EE290E02A8B3B8B0E944C
:1008800076073B892A89421453046CF04C855D85B8
:100890004215530544F4EE85FF85E20FF31FE60D84
:1008A000F71D818101C080E351E0251A31082F5FD7
:1008B0003F4F48895989241635064CF0B60190E01F
:1008C0002A8B3B8B0E9476072A893B89CFCF241441
:1008D000350439F49A81963318F4953311F404FFF2
:1008E00081E3B60190E04BC08A81813309F00F7E2D
:1008F000B60190E00E947607111105C034FC18C0C3
:1009000085E690E017C0B6018EE290E00E9476077F
:1009100082E0EE24E394E80EF301E80FF11D8081FC
:10092000B60190E00E94760711508E2D91F7E6CF28
:1009300085E490E0B6010E94760757FC05C041149B
:10094000510439F404FF05C05194419451088DE2DB
:1009500001C08BE2B60190E00E94760780E39AE046
:10096000491651042CF08F5F5AE0451A5108F7CF11
:10097000B60190E00E947607B601C201C0960E94BF
:10098000760757C1833631F0833779F0833509F024
:1009900058C021C05201E2E0AE0EB11CF2018081CC
:1009A000898301E010E0230114C05201F2E0AF0E90
:1009B000B11CF2014080518026FF03C0612F70E01E
:1009C00002C06FEF7FEFC2012A8B0E946B078C0180
:1009D0002A892F7715C05201F2E0AF0EB11CF20147
:1009E0004080518026FF03C0612F70E002C06FEF8E
:1009F0007FEFC2012A8B0E9460078C012A89206840
:100A0000322E23FD1AC08F2D90E008171907A8F485
:100A1000B60180E290E00E947607FA94F4CFF201EA
:100A200037FC859137FE81912F01B60190E00E943D
:100A30007607F110FA94015011090115110579F7A3
:100A4000F8C0843611F0893659F5520127FF09C0E4
:100A5000F4E0AF0EB11CF20160817181828193815B
:100A60000AC0F2E0AF0EB11CF20160817181072E65
:100A7000000C880B990B2F76322E97FF09C09095AA
:100A80008095709561957F4F8F4F9F4F2068322ED4
:100A90002AE030E0A3010E94F407E82EE6183FC0E8
:100AA000022F853721F40F7E2AE030E01DC0097F38
:100AB0008F3691F018F4883559F0C5C0803719F099
:100AC000883711F0C0C0006104FF09C0046007C08E
:100AD00024FF08C0066006C028E030E005C020E121
:100AE00030E002C020E132E0520107FF09C0F4E02B
:100AF000AF0EB11CF201608171818281938108C0C7
:100B0000F2E0AF0EB11CF2016081718180E090E0F3
:100B1000A3010E94F407E82EE6180F77302E36FE68
:100B20000BC0332D3E7FE11650F434FE0AC032FC78
:100B300008C0332D3E7E05C00E2D332D03C00E2D73
:100B400001C0012F34FF0CC0FE01EE0DF11D8081AC
:100B5000803311F4397E08C032FF05C00E5F04C037
:100B6000832F867809F00F5F33FD13C030FF06C076
:100B70001E2D0F1518F41F0D101B0F2D0F1568F4E7
:100B8000B60180E290E03B8B0E9476070F5F3B89C5
:100B9000F5CF0F1510F4F01A01C0F12C34FF12C07C
:100BA000B60180E390E03B8B0E9476073B8932FFE1
:100BB00017C031FD03C088E790E002C088E590E0EF
:100BC000B6010CC0832F867859F031FF02C08BE24A
:100BD00001C080E237FD8DE2B60190E00E94760709
:100BE000E11638F4B60180E390E00E9476071150D8
:100BF000F7CFEA94F301EE0DF11D8081B60190E08C
:100C00000E947607E110F5CF14C0F4E0FF1558F507
:100C100084E0F81A33FE1EC0211026C003FF2AC04C
:100C200008E610E0F32DF0713F2EF8018491811158
:100C300024C0FF2009F4E5CCB60180E290E00E94D8
:100C40007607FA94F6CFF6018681978126C08FEF5A
:100C50009FEF23C0B60180E290E00E947607FA94ED
:100C6000F110F8CFD9CFF12CB601822D90E00E947F
:100C70007607D4CF0CE610E0D5CF31108052B60104
:100C800090E00E9476070F5F1F4FCFCF23E02F1514
:100C900010F483E0BECFF12CC1CF6396E2E10C9457
:100CA0006D062F923F924F925F926F927F928F923A
:100CB0009F92AF92BF92CF92DF92EF92FF920F93EB
:100CC0001F93CF93DF93CDB7DEB7CA1BDB0B0FB6F5
:100CD000F894DEBF0FBECDBF09942A8839884888B2
:100CE0005F846E847D848C849B84AA84B984C88448
:100CF000DF80EE80FD800C811B81AA81B981CE0F3F
:100D0000D11D0FB6F894DEBF0FBECDBFED01089523
:100D1000283008F027E03327DA01990F311D87FDCD
:100D2000916000966105710539F432602E5F3D9344
:100D300030E32A95E1F708959F3F30F08038710540
:100D4000610509F03C5F3C5F3D93913008F080689D
:100D5000911DDF93CF931F930F93FF92EF92192F63
:100D6000987F9695E92F96959695E90FFF27E6537C
:100D7000FF4F99273327EE24FF24A701E7010590B1
:100D80000894079428F4360FE71EF81E491F511DDA
:100D9000660F771F881F991F0694A1F70590079487
:100DA00028F4E70EF81E491F561FC11D770F881F34
:100DB000991F661F0694A1F70590079428F4F80E72
:100DC000491F561FC71FD11D880F991F661F771F08
:100DD0000694A1F70590079420F4490F561FC71FEA
:100DE000D81F990F661F771F881F0694A9F7849153
:100DF0001095177041F0D695C79557954795F7947C
:100E0000E7941A95C1F7E0E7F0E068941590159122
:100E100035916591959105907FE27395E118F10AFE
:100E2000430B560BC90BD009C0F7E10CF11E431F51
:100E3000561FC91FD01D7EF4703311F48A95E6CF7A
:100E4000E894015030F0080F0AF40027021708F464
:100E5000202F2395022F7A3328F079E37D932A956A
:100E6000E9F710C07D932A9589F6069497956795C2
:100E7000379517951794E118F10A430B560BC90BD8
:100E8000D00998F023957E9173957A3308F070E33A
:100E90007C932013B8F77E9170617D9330F0839539
:100EA00071E37D9370E32A95E1F71124EF90FF90B1
:100EB0000F911F91CF91DF91992787FD909508950C
:100EC000FC010590615070400110D8F78095909515
:100ED0008E0F9F1F0895FC0161507040019001101A
:100EE000D8F7809590958E0F9F1F08950F931F93AD
:100EF000CF93DF93FB01238121FD03C08FEF9FEF91
:100F000028C022FF16C046815781248135814217AF
:100F1000530744F4A081B1819D012F5F3F4F31837E
:100F200020838C93268137812F5F3F4F3783268321
:100F300010C0EB01092F182F0084F185E02D0995D1
:100F4000892BE1F68E819F8101969F838E83812F6D
:100F5000902FDF91CF911F910F910895A0E0B0E005
:100F6000E4EBF7E00C946106AE014B5F5F4FFA01D2
:100F700061917191AF0180919D0190919E010E94BC
:100F8000D502E2E00C947D060F931F93CF93DF937D
:100F9000E0919D01F0919E01238121FF1BC08C01F6
:100FA000D0E0C0E0F80181918F0160919D017091C6
:100FB0009E01DB011896ED91FC911997882331F081
:100FC0000995892B79F3DFEFCFEFECCF8AE0099514
:100FD000892B19F08FEF9FEF02C08D2F9C2FDF918F
:100FE000CF911F910F910895FA01AA27283051F14E
:100FF000203181F1E8946F936E7F6E5F7F4F8F4F4A
:101000009F4FAF4FB1E03ED0B4E03CD0670F781FA8
:10101000891F9A1FA11D680F791F8A1F911DA11D8D
:101020006A0F711D811D911DA11D20D009F46894C6
:101030003F912AE0269F11243019305D3193DEF66E
:10104000CF010895462F4770405D4193B3E00FD024
:10105000C9F7F6CF462F4F70405D4A3318F0495D0F
:1010600031FD4052419302D0A9F7EACFB4E0A695F2
:101070009795879577956795BA95C9F70097610514
:10108000710508959B01AC010A2E0694579547956A
:1010900037952795BA95C9F7620F731F841F951F5F
:1010A000A01D0895F894FFCF00000002000000008A
:1010B0001B02000000003100300074657374696E1B
:1010C000670D002573207265636569766564200D80
:1010D0000A006E6F206461746120726563656976D1
:1010E0006564200D0000FFFFFFFFFFFFFFFFFFFF14
:1010F000FFFFFFFFFFFFFFFFFFFFFFFFFFFFFFFF00
:10110000FFFFFFFFFFFFFFFFFFFFFFFFFFFFFFFFEF
:10111000FFFFFFFFFFFFFFFFFFFFFFFFFFFFFFFFDF
:10112000FFFFFFFFFFFFFFFFFFFFFFFFFFFFFFFFCF
:00000001FF
